S01500007077725F636F6E74726F6C6C65722E733139E3
S3250000000000000120F5010000550200001104000069040000C1040000190500000000000007
S32500000020000000000000000000000000C15900005902000000000000D15B0000395C000084
S32500000040710500007905000081050000890500009105000099050000A1050000A90500000A
S32500000060B1050000B9050000C1050000C9050000D1050000D9050000E1050000E9050000EA
S32500000080F1050000F9050000010600000906000011060000190600002106000029060000C4
S325000000A03106000039060000410600004906000051060000590600006106000069060000A2
S325000000C0710600007906000081060000890600009106000099060000A1060000A906000082
S325000000E0B1060000B9060000C1060000C9060000D1060000D9060000E1060000E906000062
S3250000010005280000F906000001070000090700001107000019070000210700002907000005
S32500000120310700003907000041070000490700005107000059070000DF260000690700007C
S32500000140710700007907000081070000890700009107000099070000A1070000A9070000F9
S32500000160B1070000B9070000C1070000C9070000D1070000D9070000E1070000E9070000D9
S32500000180F1070000F9070000F0F000000000002088000000F0F000000000FF1F00000000DB
S325000001A0F0F00000000000140000000088000020482C00000000FF1F0000000000000014F7
S325000001C000000000002393420AD210B404680C600433043004319342F8D35DF8044B70470E
S325000001E0704700238B4204D20022026004330430F8E7704710B572B609F078FF104B114AE4
S32500000200934208D203F10C049A6859681868FFF7D9FF2346F3E70C4A934207D21C465968AA
S3250000022054F8080BFFF7DDFF2346F4E7074B084A1A600BF01FFD62B602F0C2FCFEE700BFA2
S3250000024088010000AC010000C401000008ED00E000000000FEE7FEE7FEE7FEE7FEE7FEE76A
S32500000260FFFFFFFFFFFFFFFFFFFFFFFFFFFFFFFFFFFFFFFFFFFFFFFFFFFFFFFFFFFFFFFF98
S32500000280FFFFFFFFFFFFFFFFFFFFFFFFFFFFFFFFFFFFFFFFFFFFFFFFFFFFFFFFFFFFFFFF78
S325000002A0FFFFFFFFFFFFFFFFFFFFFFFFFFFFFFFFFFFFFFFFFFFFFFFFFFFFFFFFFFFFFFFF58
S325000002C0FFFFFFFFFFFFFFFFFFFFFFFFFFFFFFFFFFFFFFFFFFFFFFFFFFFFFFFFFFFFFFFF38
S325000002E0FFFFFFFFFFFFFFFFFFFFFFFFFFFFFFFFFFFFFFFFFFFFFFFFFFFFFFFFFFFFFFFF18
S32500000300FFFFFFFFFFFFFFFFFFFFFFFFFFFFFFFFFFFFFFFFFFFFFFFFFFFFFFFFFFFFFFFFF7
S32500000320FFFFFFFFFFFFFFFFFFFFFFFFFFFFFFFFFFFFFFFFFFFFFFFFFFFFFFFFFFFFFFFFD7
S32500000340FFFFFFFFFFFFFFFFFFFFFFFFFFFFFFFFFFFFFFFFFFFFFFFFFFFFFFFFFFFFFFFFB7
S32500000360FFFFFFFFFFFFFFFFFFFFFFFFFFFFFFFFFFFFFFFFFFFFFFFFFFFFFFFFFFFFFFFF97
S32500000380FFFFFFFFFFFFFFFFFFFFFFFFFFFFFFFFFFFFFFFFFFFFFFFFFFFFFFFFFFFFFFFF77
S325000003A0FFFFFFFFFFFFFFFFFFFFFFFFFFFFFFFFFFFFFFFFFFFFFFFFFFFFFFFFFFFFFFFF57
S325000003C0FFFFFFFFFFFFFFFFFFFFFFFFFFFFFFFFFFFFFFFFFFFFFFFFFFFFFFFFFFFFFFFF37
S325000003E0FFFFFFFFFFFFFFFFFFFFFFFFFFFFFFFFFFFFFFFFFFFFFFFFFFFFFFFFFFFFFFFF17
S32500000400FFFFFFFFFFFFFFFFFFFFFFFFFEFFFFFF08B5104A136801331360052B03D8012181
S325000004200D480BF029FF1721072001F06FF94FF480531A68094B9A4209D000F015FCBFF332
S325000004404F8F074B074A1A60BFF34F8FE7E700F039FCF4E7880000209C010020CC33CC33DA
S325000004600CED00E00400FA0508B5104A136801331360052B03D801210D480BF0FDFE1821B0
S32500000480072001F043F94FF480531A68094B9A4209D000F0E9FBBFF34F8F074B074A1A60E0
S325000004A0BFF34F8FE7E700F00DFCF4E78C0000209C010020CC33CC330CED00E00400FA05C1
S325000004C008B5104A136801331360052B03D801210D480BF0D1FE1921072001F017F94FF4EC
S325000004E080531A68094B9A4209D000F0BDFBBFF34F8F074B074A1A60BFF34F8FE7E700F0F5
S32500000500E1FBF4E7900000209C010020CC33CC330CED00E00400FA0508B5104A1368013311
S325000005201360052B03D801210D480BF0A5FE1A21072001F0EBF84FF480531A68094B9A4224
S3250000054009D000F091FBBFF34F8F074B074A1A60BFF34F8FE7E700F0B5FBF4E79400002006
S325000005609C010020CC33CC330CED00E00400FA0508B5FFF774FE08BD08B5FFF770FE08BD0E
S3250000058008B5FFF76CFE08BD08B5FFF768FE08BD08B5FFF764FE08BD08B5FFF760FE08BDE5
S325000005A008B5FFF75CFE08BD08B5FFF758FE08BD08B5FFF754FE08BD08B5FFF750FE08BD05
S325000005C008B5FFF74CFE08BD08B5FFF748FE08BD08B5FFF744FE08BD08B5FFF740FE08BD25
S325000005E008B5FFF73CFE08BD08B5FFF738FE08BD08B5FFF734FE08BD08B5FFF730FE08BD45
S3250000060008B5FFF72CFE08BD08B5FFF728FE08BD08B5FFF724FE08BD08B5FFF720FE08BD64
S3250000062008B5FFF71CFE08BD08B5FFF718FE08BD08B509F04BF908BD08B509F055F908BD0C
S3250000064008B5FFF70CFE08BD08B5FFF708FE08BD08B5FFF704FE08BD08B5FFF700FE08BDA4
S3250000066008B5FFF7FCFD08BD08B509F0E9F908BD08B5FFF7F4FD08BD08B509F0FDF908BDCC
S3250000068008B5FFF7ECFD08BD08B509F011FA08BD08B5FFF7E4FD08BD08B509F025FA08BD7A
S325000006A008B5FFF7DCFD08BD08B5FFF7D8FD08BD08B5FFF7D4FD08BD08B5FFF7D0FD08BD08
S325000006C008B5FFF7CCFD08BD08B5FFF7C8FD08BD08B5FFF7C4FD08BD08B5FFF7C0FD08BD28
S325000006E008B5FFF7BCFD08BD08B5FFF7B8FD08BD08B5FFF7B4FD08BD08B5FFF7B0FD08BD48
S3250000070008B5FFF7ACFD08BD08B5FFF7A8FD08BD08B5FFF7A4FD08BD08B5FFF7A0FD08BD67
S3250000072008B5FFF79CFD08BD08B5FFF798FD08BD08B5FFF794FD08BD08B5FFF790FD08BD87
S3250000074008B5FFF78CFD08BD08B5FFF788FD08BD08B5FFF784FD08BD08B5FFF780FD08BDA7
S3250000076008B5FFF77CFD08BD08B5FFF778FD08BD08B5FFF774FD08BD08B5FFF770FD08BDC7
S3250000078008B509F0CDF908BD08B5FFF768FD08BD08B509F0E1F908BD08B5FFF760FD08BD0B
S325000007A008B5FFF75CFD08BD08B5FFF758FD08BD08B5FFF754FD08BD08B5FFF750FD08BD07
S325000007C008B509F09FF808BD08B508F055FA08BD08B508F051FA08BD08B508F04DFA08BDB2
S325000007E008B508F049FA08BD08B508F045FA08BD08B508F041FA08BD08B5FFF730FD08BD23
S3250000080084B080B485B000AF07F1180C8CE80F003B7EFB730023BB60BB68032B0CDCFA69E6
S32500000820BB685B0022FA03F3DAB2FB7B1344FB73BB680133BB60EFE700237B607B68012B06
S325000008401BDC00233B603B68032B12DC7B6802339B0007F1180213445A683B685B0022FA26
S3250000086003F3DAB2FB7B1344FB733B6801333B60E9E77B6801337B60E0E7FB7BDB43FB73B8
S3250000088097F82030FA7B9A4201D1012300E0002318461437BD465DF8047B04B0704780B509
S325000008A0A0B004AF786034220021B6480BF011FAB44806F081FC07F140031946B24806F0E3
S325000008C005FB07F14003184606F01CFB012387F84B30002210210F2002F010FD0246AB4B8F
S325000008E01A604FF480537B657B6D1B68A84A934203D14FF4A043FB6601E0A64BFB664FF47F
S3250000090000533B653B6D1B68A34A934212D100F027FA0346002B14BF01230023DBB2002BB7
S3250000092004D00A21062000F0F1FE03E00C21062000F0ECFE0023BB6607F1200300221A60A2
S325000009405A6007F10C0300221A605A609A60DA601A61924B4FF4FB22F96E8A4806F0AEFCB5
S325000009600346002B14BF01230023DBB2002B04D01021062000F0CAFE6BE101234FF4FB2278
S32500000980F96E804806F06CFD0346002B14BF01230023DBB2002B04D01021062000F0B6FEAE
S325000009A057E10121062000F0B1FE00237B6600233B667B6E092B00F3FB80744B186807F188
S325000009C028010023C82202F03FFF0346012B0CBF01230023DBB2002B08D000237B66FB6A2B
S325000009E023F06043B3F5806F0BD103E07B6E01337B66DCE097F83330072B02D17B6BBB662D
S32500000A00D6E0FB6A23F06043B3F5806F08D197F832303B7397F831303B757B6B3B61C6E028
S32500000A20FB6A23F0604340F20142934227D197F82A30C3F30303DBB21A463B7B19463B6E03
S32500000A40CB1A9A4212DC3A6B3B6E02339B0007F170010B4443F8602C3B6E01337A6B02334D
S32500000A609B0007F170010B4443F8602C3B6E02333B663B7B1A463B6E93420ADA04E0042156
S32500000A80062000F043FE93E00621062000F03EFE8EE03B7B1A463B6E934204DD07210620DC
S32500000AA000F034FE84E0FB69009307F10C030FCBFFF7A6FE034683F00103DBB2002B04D0EC
S32500000AC00521062000F022FE72E039693B7B980007F10C0303F10C0203462A4806F058FC64
S32500000AE00346002B14BF01230023DBB2002B04D00D21062000F00AFE5AE039693B7B9A005E
S32500000B0007F10C0303F10C0007F13803029307F13C0301930123009303461A4806F018FDC8
S32500000B200346002B14BF01230023DBB2002B04D00E21062000F0EAFD3AE00023FB65FB6D64
S32500000B40012B2DDC0023BB65FB6D032B16DCFB6D02339B0007F17002134453F8602CFB6D57
S32500000B605B0022FA03F3D9B207F12002BB6D13440A461A70BB6D0133BB65E5E7FB6D013320
S32500000B80FB65DCE79C0000200020034098000020CC33CC3300280800AA55AA556B66656B88
S32500000BA007F12003082219462E4806F0BDF900E77B6E1D2B04DD0021062000F0A7FD4CE069
S32500000BC0284806F0F0F90246BB6E934214BF01230023DBB2002B04D00F21062000F096FDFB
S32500000BE03BE0FB6EB3F5A04F0ED100F06BF80346002B14BF01230023DBB2002B13D009214F
S32500000C00062000F083FD28E000F02EF80346002B14BF01230023DBB2002B04D008210620B1
S32500000C2000F074FD19E000F06DF80346002B14BF01230023DBB2002B04D00B21062000F0A3
S32500000C4065FD0AE00321062000F060FD02F042F870E6002003F002FA00E06BE67037BD463F
S32500000C6080BD00BF0020034080B58AB004AF3B1D00221A605A60114B7B603A1D08234FF443
S32500000C8080510F4806F084FB03467B613A1D07F10C03029307F110030193012300931346EA
S32500000CA008224FF48051064806F052FC03467B617B6918461837BD4680BD00BFCC33CC33AB
S32500000CC09C00002080B582B000AF0C4B4FF480524FF480510A4806F0F1FA03467B60012341
S32500000CE04FF480524FF48051054806F0B9FB03467B607B6818460837BD4680BD6B66656B49
S32500000D009C00002080B58AB004AF3B1D00221A605A60114B7B603A1D08234FF400510F489D
S32500000D2006F036FB03467B613A1D07F10C03029307F11003019301230093134608224FF452
S32500000D400051064806F004FC03467B617B6918461837BD4680BD00BFAA55AA559C00002089
S32500000D6080B582B000AF0C4B4FF480524FF400510A4806F0A3FA03467B6001234FF4805215
S32500000D804FF40051054806F06BFB03467B607B6818460837BD4680BD6B66656B9C000020CF
S32500000DA080B584B000AF3B46184607F0B7F801233B71022005F060FC02463B4619461348CA
S32500000DC007F016F80023124A1249104807F0F4FB4FF000610D4807F01FF9012201210B4854
S32500000DE007F032F90C4B00221A710B4B00225A71094B4FF000621A600123074A092103482B
S32500000E0007F080F900BF1037BD4680BD00400240750F0000D00000203001002080B58AB060
S32500000E2000AF786009233B7507F118033B6107F110031A463B493C4807F0BAFC3B4B1B7861
S32500000E40DBB283F00103DBB2002B03D0022003F00DFAF3E7354B00221A70FB69C3F31C03A2
S32500000E609B14B3F5007F45D197F8233003F00803002B02D002F0D0F8D9E797F8233003F054
S32500000E800103002B0AD00123FB60294B186807F10C0100230A2202F0BFFAC8E797F8233040
S32500000EA003F00203002B17D00123FB60204B186807F10C0100230A2202F0AEFA022003F0B5
S32500000EC0D5F90023FB601A4B186807F10C0100230A2202F0A1FAAAE797F8233003F004038D
S32500000EE0002BA4D0134B186800230022002103F031FF9CE7FB69C3F31C039B1440F2014206
S32500000F00934206D0FB69C3F31C039B14B3F5806F8DD1094B186807F1180100230A2202F01D
S32500000F207BFA84E7D0000020004002403801002090010020940100209800002090B589B064
S32500000F4000AF3C4684E80F0001233B763B467B6107F114031A460549054807F08DFB0346DB
S32500000F60FB61FB6918462437BD4690BDD00000200040024080B485B000AFF860B9607A60CD
S32500000F803B607B6841F2B842934205D13B68092B02D1044B01221A7000BF1437BD465DF8ED
S32500000FA0047B70473801002080B483B000AF78600B46FB70FB78002B06D07B681B6A43F0E3
S32500000FC040027B681A6205E07B681B6A23F040027B681A6200BF0C37BD465DF8047B7047D9
S32500000FE080B582B000AF786039603B68012B06D9074B084A4FF4FD7107480AF00BFE7B682C
S325000010003A68043253F8223018460837BD4680BD1CD5000050D5000038D5000080B483B0EE
S3250000102000AF78600B46FB70FB78002B0AD07B6893F82130DBB263F07F03DAB27B6883F8E4
S32500001040212009E07B6893F82130DBB203F07F03DAB27B6883F8212000BF0C37BD465DF81A
S32500001060047B704780B483B000AF786039607B683A685A6000BF0C37BD465DF8047B7047DE
S3250000108080B483B000AF786039607B683A689A6000BF0C37BD465DF8047B704780B483B04D
S325000010A000AF786039607B681A693B6822FA03F303F0010318460C37BD465DF8047B7047C9
S325000010C080B483B000AF03460A46FB711346BB80FB799B005AB2BB881B125BB213435BB260
S325000010E0DBB218460C37BD465DF8047B704798B500AF02211F48FFF7D1FF044603211D480F
S32500001100FFF7CCFF03469C420CBF01230023DBB2002B01D000232AE002211648FFF7BEFFE5
S325000011200346012B08D103211248FFF7B7FF0346002B01D1012300E00023002B01D00223A3
S3250000114015E002210B48FFF7A9FF0346002B08D103210848FFF7A2FF0346012B01D10123BD
S3250000116000E00023002B01D0012300E00023184698BD00BF80F00F4090B585B000AF0346A0
S325000011800A46FB801346BB80BA88FB88D31A07EE903AF8EEE77AC7ED027AF0EE000A97ED96
S325000011A0020A0BF00DFD10EE103A184609F022F918A3D3E9002309F075F903460C46184664
S325000011C021464FF00002104B08F0B6FF03460C461846214609F0C0FB0346FB60D7ED037A60
S325000011E09FED0A7AF4EEC77AF1EE10FA01DD084BFB60D7ED037AFCEEE77A17EE903A9BB299
S3250000120018461437BD4690BD0000694000FF7F4700FF7F47613255302AA9333F90B597B0B3
S3250000122000AF786001237B64A74B3B64A74BFB634FF07E53BB63A64B7B63A64B3B634FF072
S3250000124000037B654FF000033B654FF00003FB64002387F82F300023BB8500237B85002378
S325000012603B850023FB840023BB8400237B840023BB6403F025F90346FB6007F10C03012162
S32500001280184602F079FFFFF732FF0346022B0CBF01230023DBB2002B02D08F4BBB641EE050
S325000012A0FFF725FF0346012B0CBF01230023DBB2002B02D0894BBB6411E020218848FFF712
S325000012C0DFFE00220021874805F01EFF0023BB644FF000037B65C82002F0C8FF54E100F0DD
S325000012E0E5FB034687F82F3000F0FCFB0346BB8500F058FC03463B8500F02AFD03467B84C5
S3250000130000F054FD0346BB8400F0D8FC03467B853A8D7B8C9A4226D27A8C3B8D11461846CC
S32500001320FFF72AFF034607EE903AF8EE677AC7ED157ABB8DBA6CB2FBF3F307EE903AF8EED0
S32500001340677A97ED157AB4EEE77AF1EE10FA19DBBB8DBA6CB2FBF3F307EE903AF8EE677A2C
S32500001360C7ED157A0EE097F82F30632B03D83A8D7B8C9A4206D320215948FFF781FE4FF0C6
S3250000138000037B65D7ED157AF5EEC07AF1EE10FA02D54FF000037B650C2000F073F9034641
S325000013A0184609F015F842A3D3E9002309F0A4F903460C46184621463FA3D3E9002309F04F
S325000013C071F803460C46184621464FF00002464B09F092F903460C461846214638A3D3E9F1
S325000013E0002309F05FF803460C461846214609F0B3FA0346FB6197ED157AD7ED0E7A27EE55
S32500001400277AD7ED077A77EE677A97ED0F7A67EE277AC7ED067A97ED157AD7ED077A77EEA6
S32500001420677A97ED107A67EE277AC7ED057A97ED147AD7ED057A77EE277AC7ED047A97ED7D
S32500001440067AD7ED047A77EE277AC7ED137A97ED137AD7ED0D7AB4EEE77AF1EE10FA0DDD4B
S3250000146097ED047AD7ED147AB4EEE77AF1EE10FA01D53B693B657B6BFB6439E097ED137A9D
S32500001480D7ED0C7AB4EEE77AF1EE10FA2ED597ED047AD7ED147AB4EEE77AF1EE10FA01DDEF
S325000014A03B693B653B6BFB6422E000BFAFF300800000000000F88F400000000000B4A94096
S325000014C0CDCCCCCCCCD47440A69B443B0AD7233C0000FA430000FAC30084D71740E0060BE4
S325000014E000F00F4000C00C40000059403B693B6597ED157AD7ED137A77EE277AC7ED157A11
S32500001500786D08F077FF26A3D3E9002308F0CAFF03460C461846214623A3D3E9002308F00C
S325000015200BFE03460C461846214609F0F5F903469AB2174B1A80164B1B881A4600211548E2
S3250000154005F0E2FD20211448FFF78CFD04211348FFF7A4FD0346002B0CBF01230023DBB26B
S32500001560002B3FF48AAE20210B48FFF789FD00220021084805F0C8FD4FF000037B65162119
S32500001580022000F0C3F800BF77E600BFAFF300805001002000C00C4000F00F4080F00F4000
S325000015A021B0726891EDBC3F000000000060704080B582B000AF3B1D184605F087FD3B1D54
S325000015C01946074805F042FD01210548FFF726FD0021034805F0C6FD00BF0837BD4680BD39
S325000015E000C00C4080B500AF0D4804F013FD0C4B02221A710A490B4804F07EFC0021094810
S32500001600FFF7D2FC074804F037FD0346002B064B00221A71044B00225A7100BF80BD00BF20
S325000016203C01002000B003404801002080B582B000AF0023BB8002237B7102210720FFF726
S325000016403FFD03463B713B1D2F220221184600F0A9FD0346002B14BF01230023DBB2002B4D
S3250000166001D0002307E0002000F036F840210448FFF706FD012318460837BD4680BD00BFE5
S3250000168080F00F4080B582B000AF7860104A7B6813600F4A00210F4804F094FD00210D481B
S325000016A004F0D0FD034603F08003002B0CBF01230023DBB2002B00D0F0E700210548FFF7A4
S325000016C08FFC03469BB218460837BD4680BD00BF4801002000B0034080B584B000AF03468A
S325000016E0FB80FB8819460120FFF7EAFC03463B73FB88DBB27B7307F10C032F2202211846BC
S3250000170000F050FD00BF1037BD4680BD80B586B000AF03460A46FB711346BB71BB7A6FF305
S325000017204513BB72BB7A6FF30413BB72FB684FF08C6262F31C03FB60BB7A022262F3030330
S32500001740BB72FB79FB74BB79BB7407F108030FCBFFF7F4FB00BF1837BD4680BDFFFFFFFF04
S32500001760B0B596B000AF3621002000F07AFD034603F00203002B0CBF01230023DBB2002BF5
S3250000178003D0C84B01221A7089E136213D2000F068FD034603F00103002B14BF01230023B8
S325000017A0DBB2002B01D000BFEFE73621BA2000F058FD0346A7F84E3036229021602000F0B0
S325000017C019FD36220021BA2000F014FD36220021602000F00FFDB44B3C461D460FCD0FC411
S325000017E00FCD0FC40FCD0FC495E80F0084E80F00002387F84D30002387F8573097F8573020
S325000018000A2B03D912210320FFF780FF36225921622000F0EFFC3622C421632000F0EAFC21
S32500001820002387F8563097F856301F2B15D897F85630803BD8B297F856305B0007F1580212
S32500001840134433F8583C3622194600F0D3FC97F85630013387F85630E5E7002387F85530B5
S3250000186097F855301F2B27D897F85530803BDBB23621184600F0F5FC03461A4697F8553056
S325000018805B0007F158010B4433F8583C9A4214BF01230023DBB2002B08D0002387F84D30E3
S325000018A097F85730013387F8573005E097F85530013387F85530D3E736220021622000F0FC
S325000018C099FC36220021632000F094FC00233B653B6D1F2B1CDC3B6DDBB2803BDBB2362170
S325000018E0184600F0BEFC0346002B14BF01230023DBB2002B08D0002387F84D3097F8573087
S32500001900013387F8573003E03B6D01333B65DFE7012387F84D3097F84D30002B00D16DE7E6
S3250000192036220021052000F065FC36224FF4F051182000F05FFC36224FF4F051102000F057
S3250000194059FC36224FF47061452000F053FC36224FF44861462000F04DFC3622C0211E20C2
S3250000196000F048FC362249F261613A2000F042FC36224FF4BA61382000F03CFC362242F28E
S325000019803E21392000F036FC362241F25001122000F030FC362248F20201222000F02AFC50
S325000019A0362247F6FF71322000F024FC362247F6FF71422000F01EFC362244F2F64128203C
S325000019C000F0C2FC362243F25861BB2000F012FC36224FF4BE41132000F00CFC3621BB203D
S325000019E000F03FFC0346A7F84A30B7F84A3043F020039BB236221946BB2000F0FBFB3621B9
S32500001A00BB2000F02EFC034603F02003002B14BF01230023DBB2002B01D000BFEFE73622B1
S32500001A2047F6FF71322000F0E5FB362247F6FF71422000F0DFFBB7F84E3036221946BA20E2
S32500001A4000F0D8FB3621002000F00BFC0346A7F84830B7F8483023F002039BB236221946AC
S32500001A60002000F071FC36211D2000F0FAFB0346A7F84630B7F8463023F400739BB23622B8
S32500001A8019461D2000F0B6FB4FF440533B6436220021172000F0AEFB024B01221A705837BC
S32500001AA0BD46B0BD5201002090D5000080B582B000AF0B4B1B7883F00103DBB2002B01D0D9
S32500001AC0FFF74EFE3621062000F0CBFB0346FB80FB881B12DBB218460837BD4680BD00BFEE
S32500001AE05201002090B583B000AF154B1B7883F00103DBB2002B01D0FFF732FE362119209D
S32500001B0000F0AFFB0346FB80FB88184608F060FC09A3D3E9002308F0C5FC03460C461846EF
S32500001B20214608F0F9FE03469BB218460C37BD4690BD00BFAFF30080F6285C8FC2F5E83FFA
S32500001B405201002090B583B000AF154B1B7883F00103DBB2002B01D0FFF702FE36210A207B
S32500001B6000F07FFB0346FB80B7F90630184608F02FFC09A3D3E9002308F094FC03460C461C
S32500001B801846214608F0A0FE03461BB218460C37BD4690BDAFF3008079E9263108ACE03F2F
S32500001BA05201002090B583B000AF154B1B7883F00103DBB2002B01D0FFF7D2FD3621052051
S32500001BC000F04FFB0346FB80FB88184608F000FC09A3D3E9002308F065FC03460C4618464F
S32500001BE0214608F099FE03469BB218460C37BD4690BD00BFAFF3008079E9263108ACFA3FDB
S32500001C005201002090B585B000AF0346FB71FB79112B08D0FB79202B05D0154B154AE2218F
S32500001C20154809F0F7FF154B1B7883F00103DBB2002B01D0FFF794FDFB793621184600F0BF
S32500001C4010FB0346FB81FB89184608F0C1FB4FF000020B4B08F026FC03460C461846214607
S32500001C6008F05AFE03469BB218461437BD4690BDD0D5000018D60000FCD5000052010020A8
S32500001C800080164080B582B000AF0B4B1B7883F00103DBB2002B01D0FFF762FD3621072096
S32500001CA000F0DFFA0346FB80FB881B12DBB218460837BD4680BD00BF5201002090B583B0CD
S32500001CC000AF154B1B7883F00103DBB2002B01D0FFF746FD3621FB2000F0C3FA0346FB8040
S32500001CE0FB88184608F074FB09A3D3E9002308F0D9FB03460C461846214608F00DFE034693
S32500001D009BB218460C37BD4690BD00BFAFF30080F6285C8FC2F5E83F5201002080B582B0DD
S32500001D2000AF0A4B1B7883F00103DBB2002B01D0FFF716FD3621172000F093FA0346FB802E
S32500001D40FB8818460837BD4680BD00BF5201002090B583B000AF144B1B7883F00103DBB2CE
S32500001D60002B01D0FFF7FCFC3621102000F079FA0346FB80FB88184608F02AFB08A3D3E960
S32500001D80002308F08FFB03460C461846214608F0C3FD03469BB218460C37BD4690BD00BF3A
S32500001DA079E9263108ACFA3F5201002090B583B000AF154B1B7883F00103DBB2002B01D0EA
S32500001DC0FFF7CEFC3621182000F04BFA0346FB80FB88184608F0FCFA09A3D3E9002308F063
S32500001DE061FB03460C461846214608F095FD03469BB218460C37BD4690BD00BFAFF300802F
S32500001E0079E9263108ACFA3F5201002090B583B000AF154B1B7883F00103DBB2002B01D089
S32500001E20FFF79EFC3621232000F01BFA0346FB80FB88184608F0CCFA09A3D3E9002308F087
S32500001E4031FB03460C461846214608F065FD03469BB218460C37BD4690BD00BFAFF300802E
S32500001E6079E9263108ACFA3F5201002080B598B004AF07F1140334220021184609F029FF0E
S32500001E8007F11403184605F097F93B4600221A605A609A60DA601A613621382000F0E1F94B
S32500001EA003463B603621392000F0DBF903467B603621102000F0D5F90346BB603621172069
S32500001EC000F0CFF90346FB603621232000F0C9F903463B6107F114002E4B4FF480524FF492
S32500001EE0405105F0EBF90346002B14BF01230023DBB2002B03D015210320FFF707FC07F10F
S32500001F00140001234FF480524FF4405105F0A8FA0346002B14BF01230023DBB2002B03D0EA
S32500001F2015210320FFF7F2FB3A4607F1140014234FF4405105F02CFA0346002B14BF012342
S32500001F400023DBB2002B03D013210320FFF7DEFB3A4607F1140007F14803029307F14C03FC
S32500001F60019301230093134614224FF4405105F0EFFA0346002B14BF01230023DBB2002B89
S32500001F8003D014210320FFF7C1FB00BF5037BD4680BD00BF6B66656B80B500AF304B1B6896
S32500001FA01B684FF6FF72934208D02D4B1B681B689BB236221946382000F0C6F9284B1B68B6
S32500001FC004331B684FF6FF72934209D0244B1B6804331B689BB236221946392000F0B4F937
S32500001FE01F4B1B6808331B684FF6FF72934209D01B4B1B6808331B689BB2362219461020F1
S3250000200000F0A2F9164B1B680C331B684FF6FF72934209D0124B1B680C331B689BB23622DE
S325000020201946172000F090F90D4B1B6810331B684FF6FF72934210D0094B1B6810331B68E2
S325000020405B089BB236221946452000F07DF936224FF44861462000F077F900BF80BD00BF83
S325000020600000002080B483B000AF0346FB7197F90730002B0CDB97F9073003F01F0207496B
S3250000208097F907305B09012000FA02F241F8232000BF0C37BD465DF8047B704700E100E033
S325000020A080B483B000AF03463960FB7197F90730002B0CDB3B68DBB20E4A97F90710084660
S325000020C01B01D9B213180A4683F800230BE03B68DAB2094997F9073003F00F03043B1201B0
S325000020E0D2B20B441A7600BF0C37BD465DF8047B704700BF00E100E000ED00E080B582B033
S3250000210000AF0346FB7197F9073013F1800F01D1012305E097F907301846FFF7A3FF002340
S3250000212018460837BD4680BD80B485B000AF78607B6801331B78FB81FB891B021AB27B6856
S325000021401B781BB213431BB29BB218461437BD465DF8047B704780B584B000AF1820FFF72C
S32500002160CDFF02211820FFF79BFF01233B7100237B71094BBB6000233B73022004F07CFAF7
S3250000218003463A1D0549064803F0E4FD034618461037BD4680BD00BFA0860100006006406F
S325000021A05401002080B58CB000AFF860B9601346FB710123FB62FB793B76BB68BB62FB6805
S325000021C07B6200237B760023FB61002387F8203000237B6107F114031946054803F008FEE4
S325000021E00346FB62FB6A18463037BD4680BD00BF5401002080B584B000AF0346FB710B4677
S32500002200BB801346BB71FB793B73BB88DBB27B73BB881B12DBB2BB73BA7907F10C0303218F
S325000022201846FFF7BFFF034618461037BD4680BD80B584B000AF0346FB710B46BB711346B5
S325000022407B71FB793B73BB797B737A7907F10C0302211846FFF7A6FF034618461037BD4641
S3250000226080BD80B58AB000AF03460A46FB711346BB71FB7987F82430BB793B7401233B6288
S3250000228007F12403FB6100237B7400237B6100233B760023FB6007F10C0319460E4803F0AB
S325000022A0A7FD00233B7200237B7202233B6207F10803FB6101237B7407F10C0319460648AC
S325000022C003F096FD07F108031846FFF72DFF034618462837BD4680BD5401002080B58AB0C5
S325000022E000AF03460A46FB711346BB71FB7987F82430BB793B7401233B6207F12403FB6139
S3250000230000237B7400237B6100233B760023FB6007F10C0319460B4803F06AFD00233B7271
S3250000232001233B6207F10803FB6101237B7407F10C031946034803F05BFD3B7A18462837F6
S32500002340BD4680BD5401002080B582B000AF0346FB710B46BB801346BB71BA79B988FB79FE
S325000023601846FFF747FFBA79FB7911461846FFF778FF03461A46BB8893420CBF0123002321
S32500002380DBB2002B01D0012300E0002318460837BD4680BD80B500AF00F039F84022012121
S325000023A00020FFF745FF0346002B07D14022AA210C20FFF73DFF0346002B01D0012300E09D
S325000023C00023002B01D0002304E0034B186800F005F80123184680BD8C01002080B584B041
S325000023E000AF78600023FB60A2233B733B797B73BB79BB737B79FB7307F10C03402204216B
S325000024001846FFF7CFFE00BF1037BD4680BD80B582B000AF0A4B1B883B803B464B22022175
S325000024201846FFF7BFFE03467B607B68012B14BF01230023DBB218460837BD4680BD00BF0F
S3250000244034D6000080B500AF104B1868FFF7C6FF642001F00BFF0E4B1868FFF7BFFF642062
S3250000246001F004FF0B4B1868FFF7B8FF642001F0FDFE094B1868FFF7B1FF642001F0F6FE8C
S32500002480064B1868FFF7AAFF00BF80BD040000200C00002008000020100000208C01002075
S325000024A080B483B000AF0346FB7197F90730002B0CDB97F9073003F01F02074997F9073080
S325000024C05B09012000FA02F241F8232000BF0C37BD465DF8047B704700E100E080B483B04F
S325000024E000AF03463960FB7197F90730002B0CDB3B68DBB20E4A97F9071008461B01D9B2DC
S3250000250013180A4683F800230BE03B68DAB2094997F9073003F00F03043B1201D2B20B443F
S325000025201A7600BF0C37BD465DF8047B704700BF00E100E000ED00E080B582B000AF0346C9
S32500002540FB7197F9073013F1800F01D1012305E097F907301846FFF7A3FF00231846083757
S32500002560BD4680BD80B483B000AF786039607B681A693B6822FA03F303F0010318460C37DB
S32500002580BD465DF8047B704780B582B000AF78607B68002B05D1064B064A8521064809F047
S325000025A039FB7B6800221A7000BF0837BD4680BD38D6000058D6000040D6000080B485B059
S325000025C000AFF8600B467A60FB72FB7AFA681B01134403F584731968FB7A7A680A43F96897
S325000025E01B010B4403F584731A6000BF1437BD465DF8047B704780B485B000AFF8600B46A8
S325000026007A60FB72FB7AFA681B01134403F586737A681A6000BF1437BD465DF8047B70473E
S3250000262080B485B000AFF8600B467A60FB72FB7AFA6810331B0113447A681A6000BF143799
S32500002640BD465DF8047B704780B483B000AF78600B46FB70FB787A6810331B0113440433FA
S325000026601B6818460C37BD465DF8047B704780B483B000AF78600B46FB70FB787A681B0187
S32500002680134403F584731A68FB7842F0010279681B010B4403F584731A6000BF0C37BD460A
S325000026A05DF8047B704780B483B000AF78600B46FB70FB787A681B01134403F584731A68A6
S325000026C0FB7822F0010279681B010B4403F584731A6000BF0C37BD465DF8047B7047F0B582
S325000026E085B000AF0023FB6001213F4806F078FB00213D48FFF736FF0346002B14BF012324
S325000027000023DBB2002B04D000213848FFF7AFFF63E000213548FFF797FF03461D464FF067
S3250000272000062B4634464FF000014FF00002620142EAD36259010B4614465B1B64EB060489
S325000027404FF000014FF00002620242EAD35259020B4614465B1944EB06044FF000014FF00B
S325000027600002A20142EA93629901C91A62EB04024B1942EB060425461C46022003F07CFFC5
S3250000278003461A464FF000032046294608F034F903460C461A46164B9B1ABB6000211348A6
S325000027A0FFF781FF03237B60BB68124A93420CD9BB68114A934202D800237B6005E0BB6830
S325000027C00E4A934201D801237B600D4B186807F10C02391D002300F019FFBFF34F8F00BF40
S325000027E01437BD46F0BD00BFC0F00F4000700340809698003F420F00BFC62D007F969800CA
S325000028009001002080B582B000AF00237B6002233B600A4B18683A1D3946002300F0F6FE7B
S3250000282000210748FFF73FFF012200210448FFF7E2FE00BF0837BD4680BD00BF90010020DA
S325000028400070034090B583B000AF3B1D1846FFF79BFE3B1D1946184807F0A6F8022003F092
S325000028600BFF03464FF00004144A02FB04F1002202FB03F20A441149A3FB01015318194646
S325000028800F4A4FF0000308F0B7F803460C461A4600210948FFF7C4FE022200210648FFF742
S325000028A08DFE3020FFF748FE09213020FFF716FE00BF0C37BD4690BD0070034080969800C4
S325000028C040420F0080B483B000AF0346FB7197F90730002B0CDB97F9073003F01F02074992
S325000028E097F907305B09012000FA02F241F8232000BF0C37BD465DF8047B704700E100E0CB
S3250000290080B483B000AF03463960FB7197F90730002B0CDB3B68DBB20E4A97F907100846F7
S325000029201B01D9B213180A4683F800230BE03B68DAB2094997F9073003F00F03043B120147
S32500002940D2B20B441A7600BF0C37BD465DF8047B704700BF00E100E000ED00E080B582B0CA
S3250000296000AF0346FB7197F9073013F1800F01D1012305E097F907301846FFF7A3FF0023D8
S3250000298018460837BD4680BD80B483B000AF786039607B683A685A6000BF0C37BD465DF834
S325000029A0047B704780B483B000AF786039607B683A689A6000BF0C37BD465DF8047B704745
S325000029C080B483B000AF786039607B681A693B6822FA03F303F0010318460C37BD465DF85F
S325000029E0047B704780B584B000AF78600323FB60FFF7B1FBFEF71AFEFEF7B2FEFFF7CAFC1A
S32500002A00FFF720FF294B186807F10C010023C82200F01AFF0346012B0CBF01230023DBB278
S32500002A20002B40D0FB68012B15D0022B29D0002B3AD11F4B1A78597809020A439B781B042E
S32500002A401A43002362F317031846FFF7C7FC012000F034F828E0174B1A78597809020A4308
S32500002A609B781B041A43002362F317031846FFF7B5FC02210120FEF749FE002000F01EF884
S32500002A8012E00D4B1A78597809020A439B781B041A43002362F317031846FFF79FFC0020FB
S32500002AA000F00CF800E000BFACE700BF9001002008000020040000200C000020B0B586B067
S32500002AC000AF0346FB7100237B6100233B61FB79002B56D002213848FFF756FF4FF4007167
S32500002AE03648FFF751FF4FF480713448FFF74CFF0023FB60FB681C464FF00005022003F07F
S32500002B00BBFD034618464FF000014FF47A724FF0000307F071FF02460B469D4208BF944223
S32500002B2034BF01230023DBB2002B04D000BFFB680133FB60DEE702211F48FFF741FF03464A
S32500002B40002B14BF01230023DBB2002B05D002211948FFF727FF01237B610A211748FFF77D
S32500002B602FFF0346002B14BF01230023DBB2002B15D04FF400711148FFF714FF01233B6120
S32500002B800DE002210C48FFF70DFF4FF400710B48FFF708FF4FF480710848FFF703FF7B6965
S32500002BA0002B02D13B69002B01D0012300E0002318461837BD46B0BDC0F00F4080F00F406F
S32500002BC080B582B002AF07F099F807F00DF83E20FFF7C4FE0A213E20FFF792FEFEF702FD3A
S32500002BE0FEF7E6FCFEF7DCF800220421052000F085FB0246214B1A600023019305230093B3
S32500002C000023C8221E491F4801F0E4F8002301930823009300234FF448721B491B4801F0B9
S32500002C20D9F8002301930C2300930023C8221849184801F0CFF8002301930A230093002324
S32500002C40C8221549154801F0C5F8002301930E2300930023C8221249124801F0BBF8002317
S32500002C600193072300930023C8220F490F4801F0B1F801F02FFB00BFFDE700BF9001002079
S32500002C8084D60000E529000090D600001D0E00009CD600001D2D0000ACD60000B12F000017
S32500002CA0C4D600008D300000D4D600001D12000080B483B000AF72B6BFF34F8F034B7B60E7
S32500002CC07B68034A1A60BFF34F8FFEE70CED00E00400FA0580B483B000AF72B6054B7B608A
S32500002CE07B6800221A604FF00000D0F800D040688746FEE708ED00E080B483B000AF78605B
S32500002D0039607B681A693B6822FA03F303F0010318460C37BD465DF8047B704790B58DB051
S32500002D2000AF7860C823FB62BB7B6FF34513BB73BB7B6FF30413BB733B69934A62F31C03CE
S32500002D403B61BB7B072262F30303BB7300237B85002387F829300023FB840023BB840023A4
S32500002D607B8401F0ADFB0346FB6100E000BF07F11C03C821184601F0FFF9844809F076FAF5
S32500002D80FEF7E0FE03467B85FEF790FE034687F82930FEF707FF0346FB84FEF7A3FE0346CB
S32500002DA0BB84FEF78BFF03467B84FEF77FFE0346FB75FEF7F7FE03461A46754BA3FB0223C6
S32500002DC05B099BB2DBB2BB75FEF78CFE03461A466F4BA3FB02239B099BB2DBB27B75FEF777
S32500002DE0B1FE03466A4A82FB03125211DB17D31A1BB2DBB23B750E20FEF744FC0346184639
S32500002E0007F0E6FA5AA3D3E9002307F075FC03460C461846214658A3D3E9002307F042FB23
S32500002E2003460C46184621464FF00002594B07F039FB03460C46184621464FF00002564BDA
S32500002E4007F05AFC03460C461846214607F064FD0346DBB2FB760C20FEF714FC0346184648
S32500002E6007F0B6FA42A3D3E9002307F045FC03460C461846214640A3D3E9002307F012FB83
S32500002E8003460C46184621464FF00002434B07F033FC03460C461846214639A3D3E90023BC
S32500002EA007F000FB03460C46184621464FF000023B4B07F021FC03460C461846214607F088
S32500002EC02BFD0346DBB2BB7600237B7609213548FFF712FF0346DCB201213348FFF70CFF86
S32500002EE00346DBB25B00DBB22343DCB208212D48FFF702FF0346DBB29B00DBB22343DCB293
S32500002F0002212848FFF7F8FE0346DBB2DB00DBB22343DCB203212348FFF7EEFE0346DBB2B3
S32500002F201B01DBB22343DCB203211F48FFF7E4FE0346DBB25B01DBB22343DBB27B7607F1F0
S32500002F400C030FCBFDF7FAFFFEF7E8FE03463B843B8C03F00203154A127893427FF406AF0D
S32500002F60124B1B7883F00103DAB2104B1A70FDE60000000000F88F400000000000B4A9402C
S32500002F80CDCCCCCCCCD47440000044049C0100201F85EB5100002C4000406F4000005940CD
S32500002FA00000494080F00F40C0F00F401300002080B588B000AF786042F6E063FB61BB7A91
S32500002FC06FF34513BB72BB7A6FF30413BB72FB684FF08A6262F31C03FB60BB7A042262F31C
S32500002FE00303BB7201F06CFA0346BB6107F1180342F6E061184601F0BFF8FEF78FFE03467F
S32500003000DBB2FB74FEF73EFE0346BB7407F108030FCBFDF793FFE9E780B584B000AFBB7887
S325000030206FF34513BB70BB786FF30413BB707B684FF0896262F31C037B60BB78072262F3C1
S325000030400303BB70104B1B68DBB2FB720E4B1B681B0ADBB2BB720C4B1B681B0CDBB27B722B
S32500003060094B1B681B0EDBB23B720223FB730323BB7301237B733B460FCBFDF75FFF00BFAB
S325000030801037BD4680BD00BF9801002080B584B000AF78600A4B00221A60C823FB6001F013
S325000030A00FFA0346BB6007F10803C821184601F063F8034B1B680133014A1360F3E700BFAB
S325000030C09801002080B483B000AF78607B6803F108027B685A607B684FF0FF329A607B6895
S325000030E003F108027B68DA607B6803F108027B681A617B6800221A6000BF0C37BD465DF897
S32500003100047B704780B483B000AF78607B6800221A6100BF0C37BD465DF8047B704780B441
S3250000312085B000AF786039607B685B68FB603B68FA685A60FB689A683B689A60FB689B680C
S325000031403A685A60FB683A689A603B687A681A617B681B685A1C7B681A6000BF1437BD46C8
S325000031605DF8047B704780B485B000AF786039603B681B68BB60BB68B3F1FF3F03D17B6838
S325000031801B69FB600CE07B680833FB6002E0FB685B68FB60FB685B681B68BA689A42F6D213
S325000031A0FB685A683B685A603B685B683A689A603B68FA689A60FB683A685A603B687A6842
S325000031C01A617B681B685A1C7B681A6000BF1437BD465DF8047B704780B485B000AF7860AD
S325000031E07B681B69FB607B685B687A6892689A607B689B687A6852685A60FB685B687A6847
S325000032009A4203D17B689A68FB685A607B6800221A61FB681B685A1EFB681A60FB681B6855
S3250000322018461437BD465DF8047B704780B584B000AF786039607B68FB60FB68002B09D122
S325000032404FF0200383F31188BFF36F8FBFF34F8FBB60FEE702F064FCFB681A68FB68DB6BD7
S32500003260F968096C01FB03F31A44FB685A60FB6800229A63FB681A68FB689A60FB681A685C
S32500003280FB68DB6B013BF968096C01FB03F31A44FB68DA60FB68FF2283F84420FB68FF2299
S325000032A083F845203B68002B14D1FB681B69002B1AD0FB681033184601F066FA0346002BB0
S325000032C012D00D4B4FF080521A60BFF34F8FBFF36F8F09E0FB6810331846FFF7F3FEFB68AC
S325000032E024331846FFF7EEFE02F048FC012318461037BD4680BD00BF04ED00E080B58AB0F3
S3250000330002AFF860B9601346FB71FB68002B09D14FF0200383F31188BFF36F8FBFF34F8FA7
S325000033203B61FEE7BB68002B02D10023FB6104E0FB68BA6802FB03F3FB61FB695033184669
S3250000334002F010F9B861BB69002B0BD0BB6950337B61FA79BB69009313467A69B968F868BF
S3250000336000F005F8BB6918462037BD4680BD80B584B000AFF860B9607A60FB70BB68002B25
S3250000338003D1BB69BA691A6002E0BB697A681A60BB69FA68DA63BB69BA681A640121B86966
S325000033A0FFF744FFBB69FA7883F84C2000BF1037BD4680BD80B582B000AF78607B68002B0F
S325000033C00ED07B6800225A607B6800221A607B680022DA60002300220021786800F01CF842
S325000033E000BF0837BD4680BD80B586B000AF0346FB7101237B6100233B61FB791A46396985
S325000034007869FFF77BFFF860F868FFF7D3FFFB6818461837BD4680BD80B58EB000AFF8600B
S32500003420B9607A603B6000237B63FB683B633B6B002B09D14FF0200383F31188BFF36F8F2A
S32500003440BFF34F8FBB62FEE7BB68002B03D13B6B1B6C002B01D1012300E00023002B09D15C
S325000034604FF0200383F31188BFF36F8FBFF34F8F7B62FEE73B68022B03D13B6BDB6B012B17
S3250000348001D1012300E00023002B09D14FF0200383F31188BFF36F8FBFF34F8F3B62FEE7F5
S325000034A001F02CFB0346002B02D17B68002B01D1012300E00023002B09D14FF0200383F3C3
S325000034C01188BFF36F8FBFF34F8FFB61FEE702F027FB3B6B9A6B3B6BDB6B9A4202D33B68CD
S325000034E0022B29D13A68B968386B00F0DCFAF8623B6B5B6A002B10D03B6B2433184601F057
S3250000350043F90346002B13D03F4B4FF080521A60BFF34F8FBFF36F8F0AE0FB6A002B07D06C
S32500003520394B4FF080521A60BFF34F8FBFF36F8F02F024FB012363E07B68002B03D102F0EA
S325000035401DFB00235CE07B6B002B06D107F11403184601F07BF901237B6302F00FFB00F046
S3250000356005FF02F0DDFA3B6B93F844305BB2B3F1FF3F03D13B6B002283F844203B6B93F838
S3250000358045305BB2B3F1FF3F03D13B6B002283F8452002F0F3FA3A1D07F11403114618464B
S325000035A001F078F90346002B24D1386B00F073FB0346002B18D03B6B10337A68114618465D
S325000035C001F094F8386B00F0FEFA00F0DDFE0346002B7FF47CAF0C4B4FF080521A60BFF36C
S325000035E04F8FBFF36F8F72E7386B00F0ECFA00F0CBFE6CE7386B00F0E6FA00F0C5FE002310
S3250000360018463837BD4680BD04ED00E080B58EB000AFF860B9607A603B60FB683B633B6B17
S32500003620002B09D14FF0200383F31188BFF36F8FBFF34F8F7B62FEE7BB68002B03D13B6B44
S325000036401B6C002B01D1012300E00023002B09D14FF0200383F31188BFF36F8FBFF34F8F03
S325000036603B62FEE73B68022B03D13B6BDB6B012B01D1012300E00023002B09D14FF02003A6
S3250000368083F31188BFF36F8FBFF34F8FFB61FEE702F0FCFAEFF311824FF0200383F31188C6
S325000036A0BFF36F8FBFF34F8FBA617B61BB69FB623B6B9A6B3B6BDB6B9A4202D33B68022B34
S325000036C02CD13B6B93F8453087F82B303A68B968386B00F0E8F997F92B30B3F1FF3F12D180
S325000036E03B6B5B6A002B16D03B6B2433184601F04BF80346002B0ED07B68002B0BD07B689B
S3250000370001221A6007E097F82B300133DBB25AB23B6B83F8452001237B6301E000237B63FE
S32500003720FB6A3B613B6983F311887B6B18463837BD4680BD80B58EB000AF786039607B6866
S325000037403B633B6B002B09D14FF0200383F31188BFF36F8FBFF34F8F3B62FEE73B6B1B6CBA
S32500003760002B09D04FF0200383F31188BFF36F8FBFF34F8FFB61FEE73B6B1B68002B03D125
S325000037803B6B5B68002B01D1012300E00023002B09D14FF0200383F31188BFF36F8FBFF3BE
S325000037A04F8FBB61FEE702F071FAEFF311824FF0200383F31188BFF36F8FBFF34F8F7A61C6
S325000037C03B617B69FB623B6B9B6BBB623B6BDB6BBA6A9A422BD23B6B93F8453087F82730D8
S325000037E0BB6A5A1C3B6B9A6397F92730B3F1FF3F12D13B6B5B6A002B16D03B6B2433184602
S3250000380000F0C2FF0346002B0ED03B68002B0BD03B6801221A6007E097F827300133DBB228
S325000038205AB23B6B83F8452001237B6301E000237B63FB6AFB60FB6883F311887B6B184696
S325000038403837BD4680BDFFFF80B58EB000AFF860B9607A603B6000237B63FB683B633B6B05
S32500003860002B09D14FF0200383F31188BFF36F8FBFF34F8F7B62FEE7BB68002B03D13B6B02
S325000038801B6C002B01D1012300E00023002B09D14FF0200383F31188BFF36F8FBFF34F8FC1
S325000038A03B62FEE701F02AF90346002B02D17B68002B01D1012300E00023002B09D14FF0DA
S325000038C0200383F31188BFF36F8FBFF34F8FFB61FEE702F025F93B6B9B6BFB62FB6A002B86
S325000038E046D03B6BDB68BB62B968386B00F045F93B68002B21D1FB6A5A1E3B6B9A633B6BCE
S325000039001B68002B04D101F011FA02463B6B5A603B6B1B69002B27D03B6B1033184600F0F7
S3250000392033FF0346002B1FD04F4B4FF080521A60BFF34F8FBFF36F8F16E03B6BBA6ADA608D
S325000039403B6B5B6A002B0FD03B6B2433184600F01BFF0346002B07D0434B4FF080521A6023
S32500003960BFF34F8FBFF36F8F02F008F9012377E07B68002B03D102F001F9002370E07B6B6C
S32500003980002B06D107F11403184600F05FFF01237B6302F0F3F800F0E9FC02F0C1F83B6B5F
S325000039A093F844305BB2B3F1FF3F03D13B6B002283F844203B6B93F845305BB2B3F1FF3F03
S325000039C003D13B6B002283F8452002F0D7F83A1D07F114031146184600F05CFF0346002BCA
S325000039E031D1386B00F041F90346002B25D03B6B1B68002B08D102F093F83B6B5B68184618
S32500003A0001F09AF802F0BAF83B6B24337A681146184600F06BFE386B00F0D5F800F0B4FC8C
S32500003A200346002B7FF455AF0F4B4FF080521A60BFF34F8FBFF36F8F4BE7386B00F0C3F8F0
S32500003A4000F0A2FC45E7386B00F0BDF800F09CFC386B00F00AF90346002B3FF43AAF00238D
S32500003A6018463837BD4680BD04ED00E080B584B000AF78607B68FB60FB68002B09D14FF08D
S32500003A80200383F31188BFF36F8FBFF34F8FBB60FEE7F86800F040F9F86801F025FE00BFF2
S32500003AA01037BD4680BD80B586B000AFF860B9607A6000237B61FB689B6B3B61FB681B6C26
S32500003AC0002B0DD1FB681B68002B4DD1FB685B68184601F0A7F87861FB6800225A6043E059
S32500003AE07B68002B19D1FB689868FB681B6C1A46B96808F0E3F8FB689A68FB681B6C1A447A
S32500003B00FB689A60FB689A68FB685B689A422BD3FB681A68FB689A6026E0FB68D868FB688F
S32500003B201B6C1A46B96808F0C9F8FB68DA68FB681B6C5B421A44FB68DA60FB68DA68FB688F
S32500003B401B689A4207D2FB685A68FB681B6C5B421A44FB68DA607B68022B05D13B69002BCB
S32500003B6002D03B69013B3B613B695A1CFB689A637B6918461837BD4680BD80B582B000AF90
S32500003B80786039607B681B6C002B18D07B68DA687B681B6C1A447B68DA607B68DA687B681F
S32500003BA05B689A4203D37B681A687B68DA607B68D9687B681B6C1A46386808F07FF800BF4C
S32500003BC00837BD4680BD80B584B000AF786001F0A7FF7B6893F84530FB7311E07B685B6AEF
S32500003BE0002B12D07B682433184600F0CDFD0346002B01D000F0ACFEFB7B013BDBB2FB73D4
S32500003C0097F90F30002BE9DC00E000BF7B68FF2283F8452001F0B2FF01F082FF7B6893F8DA
S32500003C204430BB7311E07B681B69002B12D07B681033184600F0A8FD0346002B01D000F029
S32500003C4087FEBB7B013BDBB2BB7397F90E30002BE9DC00E000BF7B68FF2283F8442001F07B
S32500003C608DFF00BF1037BD4680BD80B584B000AF786001F055FF7B689B6B002B02D101232C
S32500003C80FB6001E00023FB6001F078FFFB6818461037BD4680BD80B584B000AF786001F0D3
S32500003CA03FFF7B689A6B7B68DB6B9A4202D10123FB6001E00023FB6001F060FFFB68184611
S32500003CC01037BD4680BDFFFF80B485B000AF786039600023FB6014E00E4AFB6852F83330F6
S32500003CE0002B0BD10B49FB683A6841F83320094AFB68DB0013447A685A6005E0FB680133D2
S32500003D00FB60FB68072BE7D900BF1437BD465DF8047B7047F801002080B485B000AF78604C
S32500003D200023FB6016E0104AFB68DB0013445B687A689A420BD10C4AFB68002142F8331066
S32500003D40094AFB68DB00134400225A6005E0FB680133FB60FB68072BE5D900BF1437BD4662
S32500003D605DF8047B704700BFF801002080B586B000AFF860B9607A60FB687B6101F0D0FE77
S32500003D807B6993F844305BB2B3F1FF3F03D17B69002283F844207B6993F845305BB2B3F1FD
S32500003DA0FF3F03D17B69002283F8452001F0E6FE7B699B6B002B06D17B6924337A68B96806
S32500003DC0184600F0B7FC7869FFF7FDFE00BF1837BD4680BD80B58CB004AFF860B9603B608C
S32500003DE01346FB80FB889B00184601F0BBFB78617B69002B0ED0742001F0B4FBF861FB690F
S32500003E00002B03D0FB697A691A6305E0786901F06BFC01E00023FB61FB69002B13D0FA8868
S32500003E2000230393FB690293FB6A0193BB6A00933B68B968F86800F00EF8F86900F0A0F816
S32500003E400123BB6102E04FF0FF33BB61BB6918462037BD4680BD80B588B000AFF860B96007
S32500003E607A603B603B6B186B7B689B001A46A52107F02FFF3B6B1A6B7B6803F18043013BD4
S32500003E809B001344BB61BB6923F00703BB61BB6903F00703002B09D04FF0200383F311881B
S32500003EA0BFF36F8FBFF34F8F7B61FEE70023FB6112E0BA68FB69134419783A6BFB691344BC
S32500003EC034330A461A70BA68FB6913441B78002B06D0FB690133FB61FB69132BE9D900E0F2
S32500003EE000BF3B6B002283F84720BB6A042B01D90423BB623B6BBA6ADA623B6BBA6A1A6592
S32500003F003B6B00225A653B6B04331846FFF7FAF83B6B18331846FFF7F5F83B6B3A6B1A61F9
S32500003F20BB6AC3F105023B6B9A613B6B3A6B5A620023FB6108E03B6BFA691632002143F8DF
S32500003F402210FB690133FB61FB69042BF3D93B6B0022DA663B6B002283F870203A68F968F8
S32500003F60B86901F0D5FC02463B6B1A60FB6A002B02D0FB6A3A6B1A6000BF2037BD4680BDB4
S32500003F8080B582B000AF786001F0CAFD2C4B1B6801332B4A13602B4B1B68002B09D1294AEE
S32500003FA07B681360264B1B68012B10D100F0F4FC0DE0254B1B68002B09D1224B1B68DA6AAB
S32500003FC07B68DB6A9A4202D81E4A7B6813601F4B1B6801331D4A13601C4B1A687B689A647A
S32500003FE07B68DB6A01229A40194B1B681343184A13607B68DA6A13469B0013449B00154A18
S325000040001A447B68043319461046FFF788F801F0B5FD0D4B1B68002B0ED00A4B1B68DA6A54
S325000040207B68DB6A9A4207D20B4B4FF080521A60BFF34F8FBFF36F8F00BF0837BD4680BD3E
S3250000404010030020380200201C0300202C030020180300203C02002004ED00E080B584B06C
S3250000406000AF786001F05CFD7B68002B02D1384B1B6800E07B68FB60FB6804331846FFF776
S32500004080ABF80346002B15D1FB68DA6A314913469B0013449B000B441B68002B0AD1FB68DB
S325000040A0DB6A012202FA03F3DA432B4B1B681340294A1360FB689B6A002B04D0FB6818333C
S325000040C01846FFF789F8254B1B680133234A13601F4B1B68FA689A420BD1FB6804331946FE
S325000040E01F48FFF71CF81F4B1B6801331D4A136009E01D4B1B68013B1B4A1360F86800F016
S32500004100C7FC00F0D5FC01F039FD184B1B68002B1AD00F4B1B68FA689A4215D1144B1B6810
S32500004120002B09D04FF0200383F31188BFF36F8FBFF34F8FBB60FEE70E4B4FF080521A60E0
S32500004140BFF34F8FBFF36F8F00BF1037BD4680BD380200203C020020180300202C03002091
S32500004160E4020020F8020020100300201C0300203803002004ED00E080B58AB000AF786085
S32500004180396000237B627B68002B09D14FF0200383F31188BFF36F8FBFF34F8F7B61FEE726
S325000041A03B68002B09D14FF0200383F31188BFF36F8FBFF34F8F3B61FEE7294B1B68002BFD
S325000041C009D04FF0200383F31188BFF36F8FBFF34F8FFB60FEE700F0C9F8224B1B683B62D1
S325000041E07B681B683A681344FB617B681B683A6A9A420BD27B681B68FA699A4211D2FA6950
S325000042003B6A9A420DD901237B620AE07B681B68FA699A4203D3FA693B6A9A4201D90123E9
S325000042207B627B68FA691A607B6A002B06D0FA693B6AD31A0021184600F02CFE00F0A4F8DB
S32500004240B861BB69002B07D1074B4FF080521A60BFF34F8FBFF36F8F00BF2837BD4680BD9D
S32500004260380300201403002004ED00E080B584B000AF78600023FB607B68002B16D0134B15
S325000042801B68002B09D04FF0200383F31188BFF36F8FBFF34F8FBB60FEE700F067F8002170
S325000042A0786800F0F7FD00F06FF8F860FB68002B07D1074B4FF080521A60BFF34F8FBFF300
S325000042C06F8F00BF1037BD4680BD00BF3803002004ED00E080B586B002AF1E4B019300236D
S325000042E0009300235A221C491C48FFF773FDF860FB68012B02D100F033FEF860FB68012B95
S3250000430015D14FF0200383F31188BFF36F8FBFF34F8FBB60124B4FF0FF321A60114B01221F
S325000043201A60114B00221A6001F06EFB0DE0FB68B3F1FF3F09D14FF0200383F31188BFF37C
S325000043406F8FBFF34F8F7B60FEE700BF1037BD4680BD00BF34030020DCD600006949000049
S32500004360300300201C0300201403002080B400AF044B1B680133034A136000BFBD465DF8AE
S32500004380047B70473803002080B584B000AF0023FB600023BB60414B1B68002B09D14FF05F
S325000043A0200383F31188BFF36F8FBFF34F8F3B60FEE701F0B5FB394B1B68013B374A13602D
S325000043C0364B1B68002B61D1354B1B68002B5DD02EE0344BDB68DB68FB60FB6818331846A1
S325000043E0FEF7FAFEFB6804331846FEF7F5FEFB68DB6A01229A402C4B1B6813432A4A13600E
S32500004400FB68DA6A13469B0013449B00274A1A44FB68043319461046FEF781FEFB68DA6AD0
S32500004420234B1B68DB6A9A4202D3224B01221A601C4B1B68002BCCD1FB68002B01D000F084
S3250000444037FB1D4B1B687B607B68002B10D000F047F80346002B02D0164B01221A607B681A
S32500004460013B7B607B68002BF1D1134B00221A60104B1B68002B09D00123BB600F4B4FF09B
S3250000448080521A60BFF34F8FBFF36F8F01F076FBBB6818461037BD4680BD00BF3803002006
S325000044A010030020D0020020180300203C02002038020020240300202003002004ED00E083
S325000044C080B483B000AF054B1B687B607B6818460C37BD465DF8047B704700BF140300200A
S325000044E080B586B000AF00237B61484B1B68002B7CD1474B1B6801333B61454A3B69136084
S325000045003B69002B1FD1434B1B681B68002B09D04FF0200383F31188BFF36F8FBFF34F8F8D
S325000045203B60FEE73B4B1B68FB603B4B1B68394A1360394AFB681360384B1B680133374A7E
S32500004540136000F0B5FA364B1B683A699A4252D3304B1B681B68002B01D1012300E00023F6
S32500004560002B04D02E4B4FF0FF321A6043E0294B1B68DB68DB68BB60BB685B687B603A69B4
S325000045807B689A4203D2264A7B68136033E0BB6804331846FEF720FEBB689B6A002B04D0B6
S325000045A0BB6818331846FEF717FEBB68DB6A01229A401C4B1B6813431A4A1360BB68DA6A3C
S325000045C013469B0013449B00174A1A44BB68043319461046FEF7A3FDBB68DA6A134B1B6844
S325000045E0DB6A9A42B4D301237B61B1E7104B1B6801330F4A13600F4B1B68002B01D001239A
S325000046007B617B6918461837BD4680BD3803002014030020C8020020CC0200202803002032
S3250000462030030020180300203C02002038020020200300202403002080B487B000AF264B19
S325000046401B68002B03D0254B01221A603EE0234B00221A60224B1B68FB60FB68B3FA83F3CD
S32500004660FB72FB7AC3F11F037B611E497A6913469B0013449B000B441B68002B09D14FF05A
S32500004680200383F31188BFF36F8FBFF34F8F7B60FEE77A6913469B0013449B00114A134467
S325000046A03B613B695B685A683B695A603B695A683B6908339A4204D13B695B685A683B690E
S325000046C05A603B695B68DB68074A136000BF1C37BD465DF8047B704738030020240300206A
S325000046E0180300203C0200203802002080B584B000AF786039607B68002B09D14FF02003EE
S3250000470083F31188BFF36F8FBFF34F8FFB60FEE7074B1B68183319467868FEF724FD01216D
S32500004720386800F0B7FB00BF1037BD4680BD00BF3802002080B586B000AFF860B9607A606D
S32500004740FB68002B09D14FF0200383F31188BFF36F8FBFF34F8F7B61FEE70A4B1B68183356
S325000047601946F868FEF7DBFC7B68002B02D04FF0FF33BB607968B86800F08CFB00BF1837B6
S32500004780BD4680BD3802002080B586B000AF78607B68DB68DB683B613B69002B09D14FF09A
S325000047A0200383F31188BFF36F8FBFF34F8FFB60FEE73B6918331846FEF70EFD1D4B1B6809
S325000047C0002B1CD13B6904331846FEF705FD3B69DB6A01229A40184B1B681343164A136096
S325000047E03B69DA6A13469B0013449B00134A1A443B69043319461046FEF791FC05E03B698F
S32500004800183319460E48FEF78AFC3B69DA6A0D4B1B68DB6A9A4205D901237B610A4B0122DD
S325000048201A6001E000237B617B6918461837BD4680BD00BF38030020180300203C02002094
S32500004840D0020020380200202403002080B485B000AF78607B68002B09D14FF0200383F30F
S325000048601188BFF36F8FBFF34F8FFB60FEE7074B1A687B681A60064B1A687B685A6000BFB9
S325000048801437BD465DF8047B704700BF280300201403002080B586B000AF786039607B688A
S325000048A0002B09D14FF0200383F31188BFF36F8FBFF34F8FFB60FEE73B68002B09D14FF015
S325000048C0200383F31188BFF36F8FBFF34F8FBB60FEE701F025F91C4B1B683B613B681B68A5
S325000048E0B3F1FF3F02D100237B6126E07B681A68164B1B689A4207D07B685B683A699A42D7
S3250000490002D301237B6118E07B685B683A69D21A3B681B689A420ED23B681A687B685968E4
S325000049203B69CB1A1A443B681A607868FFF78EFF00237B6101E001237B6101F01FF97B693D
S3250000494018461837BD4680BD140300202803002080B400AF034B01221A6000BFBD465DF8FD
S32500004960047B70472403002080B582B000AF786000F052F8064B1B68012BF9D9054B4FF02B
S3250000498080521A60BFF34F8FBFF36F8FF0E700BF3C02002004ED00E080B582B000AF002387
S325000049A07B600CE07A6813469B0013449B00124A13441846FEF786FB7B6801337B607B6806
S325000049C0042BEFD90D48FEF77DFB0D48FEF77AFB0C48FEF777FB0C48FEF774FB0B48FEF79E
S325000049E071FB0B4B054A1A600A4B054A1A6000BF0837BD4680BD00BF3C020020A0020020EB
S32500004A00B4020020D0020020E4020020FC020020C8020020CC02002080B582B000AF28E0AE
S32500004A20FFF7A4FC174B1B68002B0CBF01230023DBB27B60FFF7A8FC7B68002B19D101F0CD
S32500004A406FF8104BDB68DB683B603B6804331846FEF7C2FB0C4B1B68013B0B4A13600B4B4F
S32500004A601B68013B094A136001F088F8386800F00FF8064B1B68002BD2D100BF0837BD4600
S32500004A8080BD00BFE402002010030020F802002080B582B000AF78607B681B6B184600F01C
S32500004AA023FE786800F020FE00BF0837BD4680BD80B483B000AF0F4B1B681B68002B01D130
S32500004AC0012300E00023002B04D00B4B4FF0FF321A6008E0074B1B68DB68DB687B607B6869
S32500004AE05B68054A136000BF0C37BD465DF8047B704700BFC80200203003002080B483B038
S32500004B0000AF0B4B1B68002B02D101237B6008E0084B1B68002B02D102237B6001E000234A
S32500004B207B607B6818460C37BD465DF8047B70471C0300203803002080B584B000AF7860F8
S32500004B407B68FB607B68002B62D0FB68DA6A324B1B68DB6A9A425BD2FB689B69002B06DB69
S32500004B602D4B1B68DB6AC3F10502FB689A61FB685969FB68DA6A13469B0013449B00274AB3
S32500004B801344994201D1012300E00023002B3AD0FB6804331846FEF71FFB0346002B15D14E
S32500004BA0FB68DA6A1D4913469B0013449B000B441B68002B0AD1FB68DB6A012202FA03F367
S32500004BC0DA43174B1B681340154A1360124B1B68DA6AFB68DA62FB68DB6A01229A40104BE5
S32500004BE01B6813430E4A1360FB68DA6A13469B0013449B00094A1A44FB680433194610467E
S32500004C00FEF78DFA04E0044B1B68DA6AFB68DA6200BF1037BD4680BD380200203C0200207B
S32500004C201803002080B586B000AF78607B683B6100237B617B68002B6CD0394B1B683A69CF
S32500004C409A4209D04FF0200383F31188BFF36F8FBFF34F8FFB60FEE73B695B6D002B09D137
S32500004C604FF0200383F31188BFF36F8FBFF34F8FBB60FEE73B695B6D5A1E3B695A653B6992
S32500004C80DA6A3B691B6D9A4244D03B695B6D002B40D13B6904331846FEF79EFA0346002BCC
S32500004CA015D13B69DA6A1F4913469B0013449B000B441B68002B0AD13B69DB6A012202FAF2
S32500004CC003F3DA43184B1B681340174A13603B691A6D3B69DA623B69DB6AC3F105023B695B
S32500004CE09A613B69DB6A01229A400F4B1B6813430D4A13603B69DA6A13469B0013449B0002
S32500004D00084A1A443B69043319461046FEF707FA01237B617B6918461837BD4680BD00BFC7
S32500004D20380200203C0200201803002080B400AF074B1B68002B04D0054B1B685A6D0132F6
S32500004D405A65034B1B681846BD465DF8047B70473802002080B58AB000AFF860B9603B604D
S32500004D601346FB7101237B62FB68002B09D14FF0200383F31188BFF36F8FBFF34F8FBB6132
S32500004D80FEE7FB683B6200F0CBFE3B68002B03D03B6ADA6E3B681A603B6A93F87030FB7782
S32500004DA03B6A022283F87020FB79042B27D801A252F823F0FF4D0000C94D0000D74D0000F1
S32500004DC0E34D0000EB4D00003B6ADA6EBB681A433B6ADA6613E03B6ADB6E5A1C3B6ADA66D7
S32500004DE00DE03B6ABA68DA6609E0FB7F022B03D03B6ABA68DA6601E000237B6200BFFB7F35
S32500004E00012B38D13B6A04331846FEF7E5F93B6ADB6A01229A401B4B1B681343194A13604E
S32500004E203B6ADA6A13469B0013449B00164A1A443B6A043319461046FEF771F93B6A9B6A45
S32500004E40002B09D04FF0200383F31188BFF36F8FBFF34F8F7B61FEE73B6ADA6A0B4B1B6814
S32500004E60DB6A9A4207D90A4B4FF080521A60BFF34F8FBFF36F8F00F081FE7B6A18462837FA
S32500004E80BD4680BD180300203C0200203802002004ED00E080B584B000AF78603960294B0B
S32500004EA01B68FB60284B1B6804331846FEF794F90346002B0BD1244B1B68DB6A012202FA5B
S32500004EC003F3DA43214B1B681340204A13607B68B3F1FF3F0AD13B68002B07D01A4B1B686D
S32500004EE0043319461A48FEF71AF926E0FA687B681344BB60144B1B68BA685A60BA68FB68AC
S32500004F009A4209D2134B1A680F4B1B68043319461046FEF728F910E00F4B1A680A4B1B6871
S32500004F20043319461046FEF71EF90C4B1B68BA689A4202D2094ABB68136000BF1037BD46D5
S32500004F4080BD00BF140300203802002018030020FC020020CC020020C8020020300300203A
S32500004F6080B584B002AF00237B6000F0A5FA104B1B68002B0AD00F4B0193042300930023D6
S32500004F80B4220D490D48FEF725FF78607B68002B09D14FF0200383F31188BFF36F8FBFF3DE
S32500004FA04F8F3B60FEE77B6818460837BD4680BD6C03002070030020E4D60000D9500000C8
S32500004FC080B58AB000AFF860B9607A603B6000237B62FB68002B09D14FF0200383F31188EE
S32500004FE0BFF36F8FBFF34F8F3B62FEE7194B1B68002B2AD0BB683B617B687B61FB68BB61E0
S32500005000BB68052B18DCFFF779FD0346022B09D1104B186807F1100100233A6BFEF7FCF9F1
S32500005020786212E00B4B186807F1100100230022FEF7F2F9786208E0064B186807F11001FE
S3250000504000233A68FEF7E2FA78627B6A18462837BD4680BD6C03002080B588B002AF786073
S3250000506039601C4B1B68DB68DB687B617B6904331846FEF7B1F87B69DB69012B21D17B6904
S325000050809A697B68D1187B683A68786900F0C8F80346002B15D00023009300237A680021F0
S325000050A07869FFF78DFF38613B69002B09D14FF0200383F31188BFF36F8FBFF34F8FFB6039
S325000050C0FEE77B695B6A7869984700BF1837BD4680BD00BF6403002080B584B000AF7860F8
S325000050E007F10803184600F057F8F860BB681946F86800F003F800F0D5F8F1E780B584B0E7
S3250000510000AF78603960FFF731F907F10803184600F066F8F860BB68002B30D13B68002B25
S325000051200AD17A68FB689A4206D8FFF72DF9F9687868FFF791FF24E03B68002B08D0134BA4
S325000051401B681B68002B0CBF01230023DBB23B600F4B18687A68FB68D31A3A681946FEF7DC
S3250000516005FEFFF711F90346002B0AD1094B4FF080521A60BFF34F8FBFF36F8F01E0FFF7E1
S3250000518003F900BF1037BD4680BD00BF680300206C03002004ED00E080B485B000AF78602D
S325000051A00E4B1B681B68002B0CBF01230023DBB21A467B681A607B681B68002B05D1074B4A
S325000051C01B68DB681B68FB6001E00023FB60FB6818461437BD465DF8047B704764030020A5
S325000051E080B584B000AF7860FFF76AF9F8600B4B1B68FA689A4205D200F0FEF87B6801222E
S325000052001A6002E07B6800221A60044AFB681360FB6818461037BD4680BD00BF74030020EB
S3250000522080B586B000AFF860B9607A603B6000237B61FB68BA685A60FB68FA681A61BA68C8
S325000052407B689A4212D87A683B68D21AFB689B699A4202D301237B611BE0104B1A68FB68DB
S32500005260043319461046FDF77EFF12E07A683B689A4206D2BA683B689A4202D301237B612A
S3250000528007E0074B1A68FB68043319461046FDF76AFF7B6918461837BD4680BD6803002045
S325000052A06403002080B58EB002AF94E07B68002B17DA3B1D0433FB62FB6A002B09D14FF035
S325000052C0200383F31188BFF36F8FBFF34F8FFB61FEE7FB6A1B68FA6A5068FA6A926811465C
S325000052E098477B68002B75DBFB68BB62BB6A5B69002B04D0BB6A04331846FDF76DFF3B4668
S325000053001846FFF76DFF78627B68092B63D801A252F823F03D5300003D5300003D530000EB
S32500005320D753000097530000CD5300003D5300003D530000D753000097530000BA68BB6AB8
S325000053409B69D118BB687A6AB86AFFF769FF0346002B40D0BB6A5B6AB86A9847BB6ADB69FB
S32500005360012B38D1BA68BB6A9B691A440023009300230021B86AFFF723FE38623B6A002BAC
S3250000538029D14FF0200383F31188BFF36F8FBFF34F8FBB61FEE7BA68BB6A9A61BB6A9B69F0
S325000053A0002B09D14FF0200383F31188BFF36F8FBFF34F8F7B61FEE7BB6A9A697B6AD1187A
S325000053C07B6A7A6AB86AFFF72BFF04E0B86A00F08BF900E000BF074B1868391D0023002236
S325000053E0FEF732FA0346002B7FF460AF00BF3037BD4680BD6C03002080B588B002AF44E059
S325000054002B4B1B68DB681B683B61294B1B68DB68DB68FB60FB6804331846FDF7DDFEFB6829
S325000054205B6AF8689847FB68DB69012B2DD1FB689B693A691344BB60BA683B699A420ED98C
S32500005440FB68BA685A60FB68FA681A61184B1A68FB68043319461046FDF785FE15E0002304
S32500005460009300233A690021F868FFF7A9FD78607B68002B09D14FF0200383F31188BFF3CD
S325000054806F8FBFF34F8F3B60FEE7094B1B681B68002BB5D1064B1B687B61064B1B68044A1B
S325000054A01360044A7B69136000BF1837BD4680BD640300206803002080B500AF00F030FB6F
S325000054C0124B1B68002B1DD11148FDF7FBFD1148FDF7F8FD104B0E4A1A60104B0D4A1A60ED
S325000054E0002210210A20FDF709FF0246074B1A60064B1B68002B05D0044B1B6808491846C4
S32500005500FEF7E2FB00F03AFB00BF80BD6C0300203C0300205003002064030020680300201F
S32500005520ECD6000080B400AF094B1B68094AA2FB03239B09084A013B1360084B00221A603F
S32500005540074B07221A6000BFBD465DF8047B7047200000201F85EB5114E000E018E000E037
S3250000556010E000E080B58AB000AF78600023FB61FEF7FCFE574B1B68002B01D100F00CF9DA
S32500005580554B1A687B681340002B40F08C807B68002B1CD008227B6813447B607B6803F037
S325000055A00703002B13D07B6823F0070308337B607B6803F00703002B09D04FF0200383F3FB
S325000055C01188BFF36F8FBFF34F8F7B61FEE77B68002B68D0414B1B687A689A4263D8404B52
S325000055E03B623F4B1B687B6204E07B6A3B627B6A1B687B627B6A5B687A689A4203D97B6A4C
S325000056001B68002BF1D1334B1B687A6A9A424AD03B6A1B6808221344FB617B6A1A683B6A28
S325000056201A607B6A5A687B68D21A08235B009A421ED97A6A7B681344BB61BB6903F00703C0
S32500005640002B09D04FF0200383F31188BFF36F8FBFF34F8F3B61FEE77B6A5A687B68D21A98
S32500005660BB695A607B6A7A685A60B86900F0F6F81A4B1A687B6A5B68D31A184A1360174B13
S325000056801A68184B1B689A4203D2144B1B68154A13607B6A5A68104B1B681A437B6A5A60B6
S325000056A07B6A00221A60FEF76FFEFB6903F00703002B09D04FF0200383F31188BFF36F8F7B
S325000056C0BFF34F8FFB60FEE7FB6918462837BD4680BD00BF802B00208C2B0020842B002063
S325000056E0782B0020882B002080B586B000AF78607B687B617B68002B46D008235B427A698E
S3250000570013447B617B693B613B695A68204B1B681340002B09D14FF0200383F31188BFF301
S325000057206F8FBFF34F8FFB60FEE73B691B68002B09D04FF0200383F31188BFF36F8FBFF397
S325000057404F8FBB60FEE73B695A68114B1B681340002B19D03B691B68002B15D13B695A681B
S325000057600B4B1B68DB431A403B695A60FEF7FEFD3B695A68074B1B681344064A136038698E
S3250000578000F06CF8FEF700FE00BF1837BD4680BD8C2B0020842B002080B485B000AF4FF46D
S325000057A02053BB60274BFB60FB6803F00703002B0CD0FB680733FB60FB6823F00703FB604E
S325000057C0BA68FB68D31A1F4A1344BB60FB687B601D4A7B6813601C4B00225A607B68BA6833
S325000057E01344FB600822FB689B1AFB60FB6823F00703FB60FB68154A1360144B1B68002240
S325000058005A60124B1B6800221A607B683B603B68FA68D21A3B685A600C4B1A683B681A608A
S325000058203B685B680A4A13603B685B68094A1360094B4FF000421A6000BF1437BD465DF858
S32500005840047B704778030020782B0020802B0020882B0020842B00208C2B002080B485B001
S3250000586000AF7860284BFB6002E0FB681B68FB60FB681B687A689A42F7D8FB68BB60FB6856
S325000058805B68BA6813447A689A4208D1FB685A687B685B681A44FB685A60FB687B607B68C8
S325000058A0BB607B685B68BA681A44FB681B689A4218D1FB681A68154B1B689A420DD07B6892
S325000058C05A68FB681B685B681A447B685A60FB681B681A687B681A6008E00C4B1A687B68F3
S325000058E01A6003E0FB681A687B681A60FA687B689A4202D0FB687A681A6000BF1437BD4644
S325000059005DF8047B704700BF782B0020802B002080B485B000AFF860B9607A60FB68043BA4
S32500005920FB60FB684FF080721A60FB68043BFB60BB6823F00102FB681A60FB68043BFB60E8
S325000059400C4AFB681A60FB68143BFB607A68FB681A60FB68043BFB60FB686FF002021A6005
S32500005960FB68203BFB60FB6818461437BD465DF8047B70477959000080B483B000AF0C4B2F
S325000059801B68B3F1FF3F09D04FF0200383F31188BFF36F8FBFF34F8F7B60FEE74FF02003F0
S325000059A083F31188BFF36F8FBFF34F8F3B60FEE714000020FFFFFFFFFFFFFFFFFFFFFFFFEA
S325000059C0074B19680868B0E8F04F80F30988BFF36F8F4FF0000080F311887047AFF30080CF
S325000059E03802002000BF00BF06480068006880F3088862B661B6BFF34F8FBFF36F8F00DF5A
S32500005A0000BF00BF08ED00E080B586B000AF3B4B1B683B4A934209D14FF0200383F3118865
S32500005A20BFF36F8FBFF34F8F3B61FEE7334B1B68344A934209D14FF0200383F31188BFF34E
S32500005A406F8FBFF34F8FFB60FEE72F4B7B617B691B78DBB2BB607B69FF221A707B691B78F7
S32500005A60DBB2FB71FB79DBB203F02003DAB2274B1A70274B07221A6009E0254B1B68013B5B
S32500005A80234A1360FB79DBB25B00DBB2FB71FB79DBB203F08003802BEFD01D4B1B681B02E2
S32500005AA01B4A13601A4B1B6803F4E063184A1360BB68DAB27B691A70164B1B68154A43F47A
S32500005AC070031360134B1B68124A43F070431360FFF728FD104B00221A6000F0CDF80F4B23
S32500005AE01B680E4A43F040431360FFF77DFFFFF743FF002318461837BD4680BD00ED00E015
S32500005B0071C20F4170C20F4100E400E0902B0020942B002020ED00E01400002034EF00E0D8
S32500005B2080B483B000AF4FF0200383F31188BFF36F8FBFF34F8F7B600E4B1B6801330D4A56
S32500005B4013600C4B1B68012B0ED10B4B1B68DBB2002B09D04FF0200383F31188BFF36F8F5C
S32500005B60BFF34F8F3B60FEE700BF0C37BD465DF8047B70471400002004ED00E080B483B013
S32500005B8000AF114B1B68002B09D14FF0200383F31188BFF36F8FBFF34F8F7B60FEE70A4BA6
S32500005BA01B68013B084A1360074B1B68002B04D100233B603B6883F3118800BF0C37BD4611
S32500005BC05DF8047B704700BF14000020FFFFFFFFEFF30980BFF36F8F154B1A681EF0100F1B
S32500005BE008BF20ED108A20E9F04F10604DF8043D4FF0200080F31188BFF34F8FBFF36F8F48
S32500005C00FEF71AFD4FF0000080F3118808BC19680868B0E8F04F1EF0100F08BFB0EC108A71
S32500005C2080F30988BFF36F8F704700BFAFF300803802002000BF00BF80B582B000AF4FF0E5
S32500005C40200383F31188BFF36F8FBFF34F8F7B60FEF746FC0346002B03D0064B4FF0805211
S32500005C601A6000233B603B6883F3118800BF0837BD4680BD04ED00E0DFF80C00016841F4A4
S32500005C8070010160704700BF88ED00E080B485B000AFEFF30583FB60FB680F2B13D9164A9B
S32500005CA0FB6813441B78FB72144B1B78FA7A9A4209D24FF0200383F31188BFF36F8FBFF334
S32500005CC04F8F7B60FEE70E4B1B6803F4E0620D4B1B689A4209D94FF0200383F31188BFF34F
S32500005CE06F8FBFF34F8F3B60FEE700BF1437BD465DF8047B704700BFF0E300E0902B0020AB
S32500005D000CED00E0942B002080B586B000AFF860B9607A603B603B687B617B697A68DA6244
S32500005D207B695B6B07F1100211461846FDF702FD3B69002B07D0064B4FF080521A60BFF3CD
S32500005D404F8FBFF36F8F00BF1837BD4680BD00BF04ED00E080B584B000AFF860B9607A606E
S32500005D603B60FB68002B01D104233AE0BB68002B01D1042335E038220021F86805F0A9FF0D
S32500005D800120FDF731FB0246FB681A63FB681B6B002B01D1012324E0032200210120FDF72B
S32500005DA0ADFA0246FB685A63FB685B6B002B06D1FB681B6B1846FDF759FE012311E0FB6899
S32500005DC0BA681A60FB681B683A687968184603F0A5FAFB68191DFB68044AB86803F094FCDB
S32500005DE0002318461037BD4680BD00BF095D000080B584B000AF786039607B68186B00235E
S32500005E004FF0FF320021FDF71FFD0346012B02D040F24C4325E07B6818687B6804333A68AF
S32500005E20194603F0B3FCF860FB68002B08D07B68186B002300220021FDF7EEFAFB6810E0A2
S32500005E407B68586B00234FF0FF320021FDF7FCFC7B68186B002300220021FDF7DDFA7B687C
S32500005E60DB6A18461037BD4680BD80B485B000AF78607B681B0C03F1804303F58E23FB603D
S32500005E80FB6819687B689BB201229A40FB680A431A6000BF1437BD465DF8047B7047FFFF2B
S32500005EA080B584B000AF78600023FB6009E00E4AFB6852F823307A689A4206D0FB68013302
S32500005EC0FB60FB68012BF2D900E000BFFB68012B05D9064B064A4A21064805F09BFEFB68B0
S32500005EE018461037BD4680BDF4D6000004D7000070D7000028D7000080B584B000AF7860DC
S32500005F0039603B68002B05D13E4B3F4A51213F4805F080FE7868FFF7C3FF02463C4B53F80E
S32500005F2022301846FFF7A1FF3B685B7803F003023B681B799B0003F00C031343FB603B687F
S32500005F405B79042B03D0FB6843F01003FB603B68DB785B0103F06003FA681343FB603B6803
S32500005F60DB79002B03D0FB6843F08003FB607B68FA689A607B68DB6823F00F03FB603B68CD
S32500005F805B79042B06D03B685B7903F00303FA681343FB603B689B79002B03D0FB6843F054
S32500005FA00403FB603B689B78002B03D0FB6843F00803FB607B68FA68DA607B681B6A23F0CF
S32500005FC00303FB603B681B7803F00303FA681343FB607B68FA681A623B681B7A002B06D01E
S32500005FE07B685B6A43F008027B685A6205E07B685B6A23F008027B685A6200BF1037BD46C5
S3250000600080BD00BF40D7000084D7000028D70000FCD6000080B582B000AF78607B68002B3F
S3250000602005D1124B124A9121124805F0F3FD7B6800221A707B6803225A707B6801229A7069
S325000060407B680322DA707B6801221A717B6804225A717B6800229A717B680022DA717B6840
S3250000606000221A7200BF0837BD4680BD40D7000090D7000028D7000080B586B000AF7860BF
S325000060800023FB7500233B617B681B6A03F04003002B07D00123FB757B681B6A23F04002B7
S325000060A07B681A627B685B6A43F0C0027B685A620AE0786800F065F8034603F04003002B7E
S325000060C002D001233B6108E00021786800F0BAF8034603F08003002BEBD07B681B69FB6036
S325000060E0FB7D002B05D07B681B6A43F040027B681A62786800F045F8034603F04003002B2F
S3250000610001D001233B613B69002B01D03B6934E07B68DA6C7B689B6C1A447B685B6C1A4417
S325000061207B681B6C1A447B68DB6B1A447B689B6B1344FB60FB685B0843F40043FB60FA6872
S325000061407B68DA627B68DA6E7B689B6E1A447B685B6E1A447B681B6E1A447B68DB6D1A4448
S325000061607B689B6D1344FB60FB685B0843F40043FB60FA687B681A63002318461837BD464C
S3250000618080BD80B485B000AF78600023FB607B681B6A03F08003002B03D0FB6843F0800359
S325000061A0FB607B685B6A03F04003002B03D0FB6843F04003FB60FB6818461437BD465DF80A
S325000061C0047B704780B586B000AFF860B9607A60BB68012B06D9174B174A40F25711174834
S325000061E005F018FD7B68002B06D1154B124A4FF4AC71124805F00EFD7B681B6803F01F03B9
S325000062007B617B685B79002B03D07B6943F020037B617B681B79002B03D07B6943F0400302
S325000062207B61FB68BA68796943F8221000BF1837BD4680BD50D70000A8D7000028D70000B5
S3250000624040D7000080B584B000AF786039603B68012B06D90C4B0D4A40F26D110C4805F043
S32500006260D9FC0023FB607B683A6853F8223003F08003002B03D0FB6843F08003FB60FB6858
S3250000628018461037BD4680BD50D70000C0D7000028D7000080B483B000AF7860084B1B6892
S325000062A023F440227B689B0403F44023044913430B6000BF0C37BD465DF8047B704700BF26
S325000062C00070044080B483B000AF78600B4B03F5805304331B6823F480327B681B0403F479
S325000062E0803306491A4301F5805304331A6000BF0C37BD465DF8047B704700BF00700440BC
S3250000630080B485B000AF786039607B681B78FB73FB7B03F05F03FB733B681A78FB7B1343D0
S32500006320FB737B68FA7B1A7000BF1437BD465DF8047B704780B485B000AF78600B46FB70C3
S325000063407B681B78FB73FB7B23F00F03FB73FA7BFB781343FB737B68FA7B1A7000BF1437B2
S32500006360BD465DF8047B704780B582B000AF174B1B7BDBB203F00103002B02D0012B0ED0F0
S325000063801BE0134B1B68002B05D1124B124AEC21124805F03FFC0E4B1B687B6010E0104BC8
S325000063A01B68002B05D10F4B0B4AF1210B4805F031FC0B4B1B687B6002E000237B6000BFCA
S325000063C07B6818460837BD4680BD00BF00400640982B0020DCD7000024D80000E8D7000061
S325000063E09C2B002000D8000080B582B000AFFFF7BBFF78607B68002B01D17B684DE0294BD6
S325000064001B78DBB2DB08DBB203F00703FB70FB787A6822FA03F37B60224B5B78DBB21B094B
S32500006420DBB203F00303BB701E4B1B7BDBB203F001037B70BB78002B2DD07B78002B2AD1C3
S32500006440FB78072B24D801A252F823F06D6400006D6400006D6400006D6400006D64000080
S325000064606D64000075640000836400007B685B097B6011E07B680C4AA2FB03231B097B6077
S325000064800AE07B68094AA2FB0323DB087B6003E000237B6000E000BF7B6818460837BD4652
S325000064A080BD00BF00400640CDCCCCCCABAAAAAA80B400AF0C4B9B79DBB203F00103002B7D
S325000064C002D10A4B1B6809E0094B1A68064B1B7ADBB25B0803F0070322FA03F31846BD4606
S325000064E05DF8047B704700BF00400640180000201C00002080B500AF074B9B79DBB203F088
S325000065001003002B03D1FFF76FFF034601E0034B1B68184680BD00BF0040064018000020EC
